{
  "contractName": "socialBlocks",
  "abi": [
    {
      "constant": true,
      "inputs": [
        {
          "name": "",
          "type": "uint256"
        }
      ],
      "name": "posts",
      "outputs": [
        {
          "name": "id",
          "type": "uint256"
        },
        {
          "name": "content",
          "type": "string"
        },
        {
          "name": "imgsrc",
          "type": "string"
        },
        {
          "name": "likecnt",
          "type": "uint256"
        },
        {
          "name": "dislikecnt",
          "type": "uint256"
        },
        {
          "name": "reportcnt",
          "type": "uint256"
        },
        {
          "name": "isreported",
          "type": "bool"
        },
        {
          "name": "owner",
          "type": "address"
        }
      ],
      "payable": false,
      "stateMutability": "view",
      "type": "function",
      "signature": "0x0b1e7f83"
    },
    {
      "constant": true,
      "inputs": [
        {
          "name": "",
          "type": "address"
        }
      ],
      "name": "users",
      "outputs": [
        {
          "name": "useraddress",
          "type": "address"
        },
        {
          "name": "profileimgsrc",
          "type": "string"
        },
        {
          "name": "likecnt",
          "type": "uint256"
        },
        {
          "name": "dislikecnt",
          "type": "uint256"
        },
        {
          "name": "reportcnt",
          "type": "uint256"
        },
        {
          "name": "reputation",
          "type": "uint256"
        }
      ],
      "payable": false,
      "stateMutability": "view",
      "type": "function",
      "signature": "0xa87430ba"
    },
    {
      "constant": true,
      "inputs": [],
      "name": "postcount",
      "outputs": [
        {
          "name": "",
          "type": "uint256"
        }
      ],
      "payable": false,
      "stateMutability": "view",
      "type": "function",
      "signature": "0xbd9627c5"
    },
    {
      "anonymous": false,
      "inputs": [
        {
          "indexed": false,
          "name": "id",
          "type": "uint256"
        },
        {
          "indexed": false,
          "name": "content",
          "type": "string"
        },
        {
          "indexed": false,
          "name": "imgsrc",
          "type": "string"
        },
        {
          "indexed": false,
          "name": "likecnt",
          "type": "uint256"
        },
        {
          "indexed": false,
          "name": "dislikecnt",
          "type": "uint256"
        },
        {
          "indexed": false,
          "name": "reportcnt",
          "type": "uint256"
        },
        {
          "indexed": false,
          "name": "isreported",
          "type": "bool"
        },
        {
          "indexed": false,
          "name": "owner",
          "type": "address"
        }
      ],
      "name": "postadded",
      "type": "event",
      "signature": "0xc131d148d426255c7e657b91d13482975da91b68acd68f0142143ebedefc3b09"
    },
    {
      "anonymous": false,
      "inputs": [
        {
          "indexed": false,
          "name": "id",
          "type": "uint256"
        },
        {
          "indexed": false,
          "name": "plikecnt",
          "type": "uint256"
        },
        {
          "indexed": false,
          "name": "ulikecnt",
          "type": "uint256"
        }
      ],
      "name": "liked",
      "type": "event",
      "signature": "0x01d598a2b3cc3382817da2b76cdbf63f353f4fcd3b9ac363988e841b0e41f6cc"
    },
    {
      "anonymous": false,
      "inputs": [
        {
          "indexed": false,
          "name": "id",
          "type": "uint256"
        },
        {
          "indexed": false,
          "name": "pdislikecnt",
          "type": "uint256"
        },
        {
          "indexed": false,
          "name": "udislikecnt",
          "type": "uint256"
        }
      ],
      "name": "disliked",
      "type": "event",
      "signature": "0x13e1cc53b900719dbac8705be5301353760e261ab9ff3e1e146a4f792e2cf13d"
    },
    {
      "anonymous": false,
      "inputs": [
        {
          "indexed": false,
          "name": "id",
          "type": "uint256"
        },
        {
          "indexed": false,
          "name": "preportcnt",
          "type": "uint256"
        },
        {
          "indexed": false,
          "name": "isreported",
          "type": "bool"
        },
        {
          "indexed": false,
          "name": "ureportcnt",
          "type": "uint256"
        }
      ],
      "name": "reported",
      "type": "event",
      "signature": "0x21410dd2363997494d47b5c87064c6c9aa62ffcab49f0d2e7c0341f491a0a025"
    },
    {
      "constant": false,
      "inputs": [],
      "name": "addUser",
      "outputs": [],
      "payable": false,
      "stateMutability": "nonpayable",
      "type": "function",
      "signature": "0x455c928c"
    },
    {
      "constant": false,
      "inputs": [
        {
          "name": "_content",
          "type": "string"
        },
        {
          "name": "_imgsrc",
          "type": "string"
        }
      ],
      "name": "addPost",
      "outputs": [],
      "payable": false,
      "stateMutability": "nonpayable",
      "type": "function",
      "signature": "0xb02c6516"
    },
    {
      "constant": false,
      "inputs": [
        {
          "name": "_id",
          "type": "uint256"
        }
      ],
      "name": "onLike",
      "outputs": [],
      "payable": false,
      "stateMutability": "nonpayable",
      "type": "function",
      "signature": "0x445f2224"
    },
    {
      "constant": false,
      "inputs": [
        {
          "name": "_id",
          "type": "uint256"
        }
      ],
      "name": "onDislike",
      "outputs": [],
      "payable": false,
      "stateMutability": "nonpayable",
      "type": "function",
      "signature": "0xb863e65d"
    },
    {
      "constant": false,
      "inputs": [
        {
          "name": "_id",
          "type": "uint256"
        }
      ],
      "name": "onReport",
      "outputs": [],
      "payable": false,
      "stateMutability": "nonpayable",
      "type": "function",
      "signature": "0x70f0c23e"
    },
    {
      "constant": false,
      "inputs": [],
      "name": "settlement",
      "outputs": [],
      "payable": false,
      "stateMutability": "nonpayable",
      "type": "function",
      "signature": "0x51160630"
    }
  ],
  "bytecode": "0x60806040526000805534801561001457600080fd5b50613687806100246000396000f3fe608060405260043610610099576000357c0100000000000000000000000000000000000000000000000000000000900463ffffffff1680630b1e7f831461009e578063445f222414610218578063455c928c14610253578063511606301461026a57806370f0c23e14610281578063a87430ba146102bc578063b02c6516146103d5578063b863e65d14610534578063bd9627c51461056f575b600080fd5b3480156100aa57600080fd5b506100d7600480360360208110156100c157600080fd5b810190808035906020019092919050505061059a565b604051808981526020018060200180602001888152602001878152602001868152602001851515151581526020018473ffffffffffffffffffffffffffffffffffffffff1673ffffffffffffffffffffffffffffffffffffffff16815260200183810383528a818151815260200191508051906020019080838360005b8381101561016f578082015181840152602081019050610154565b50505050905090810190601f16801561019c5780820380516001836020036101000a031916815260200191505b50838103825289818151815260200191508051906020019080838360005b838110156101d55780820151818401526020810190506101ba565b50505050905090810190601f1680156102025780820380516001836020036101000a031916815260200191505b509a505050505050505050505060405180910390f35b34801561022457600080fd5b506102516004803603602081101561023b57600080fd5b810190808035906020019092919050505061073f565b005b34801561025f57600080fd5b50610268610ce8565b005b34801561027657600080fd5b5061027f611c5e565b005b34801561028d57600080fd5b506102ba600480360360208110156102a457600080fd5b8101908080359060200190929190505050612315565b005b3480156102c857600080fd5b5061030b600480360360208110156102df57600080fd5b81019080803573ffffffffffffffffffffffffffffffffffffffff1690602001909291905050506127f4565b604051808773ffffffffffffffffffffffffffffffffffffffff1673ffffffffffffffffffffffffffffffffffffffff16815260200180602001868152602001858152602001848152602001838152602001828103825287818151815260200191508051906020019080838360005b8381101561039557808201518184015260208101905061037a565b50505050905090810190601f1680156103c25780820380516001836020036101000a031916815260200191505b5097505050505050505060405180910390f35b3480156103e157600080fd5b50610532600480360360408110156103f857600080fd5b810190808035906020019064010000000081111561041557600080fd5b82018360208201111561042757600080fd5b8035906020019184600183028401116401000000008311171561044957600080fd5b91908080601f016020809104026020016040519081016040528093929190818152602001838380828437600081840152601f19601f820116905080830192505050505050509192919290803590602001906401000000008111156104ac57600080fd5b8201836020820111156104be57600080fd5b803590602001918460018302840111640100000000831117156104e057600080fd5b91908080601f016020809104026020016040519081016040528093929190818152602001838380828437600081840152601f19601f8201169050808301925050505050505091929192905050506128e8565b005b34801561054057600080fd5b5061056d6004803603602081101561055757600080fd5b8101908080359060200190929190505050612ba3565b005b34801561057b57600080fd5b5061058461314c565b6040518082815260200191505060405180910390f35b6001602052806000526040600020600091509050806000015490806001018054600181600116156101000203166002900480601f01602080910402602001604051908101604052809291908181526020018280546001816001161561010002031660029004801561064c5780601f106106215761010080835404028352916020019161064c565b820191906000526020600020905b81548152906001019060200180831161062f57829003601f168201915b505050505090806002018054600181600116156101000203166002900480601f0160208091040260200160405190810160405280929190818152602001828054600181600116156101000203166002900480156106ea5780601f106106bf576101008083540402835291602001916106ea565b820191906000526020600020905b8154815290600101906020018083116106cd57829003601f168201915b5050505050908060030154908060040154908060050154908060070160009054906101000a900460ff16908060070160019054906101000a900473ffffffffffffffffffffffffffffffffffffffff16905088565b610747613152565b60016000838152602001908152602001600020610100604051908101604052908160008201548152602001600182018054600181600116156101000203166002900480601f01602080910402602001604051908101604052809291908181526020018280546001816001161561010002031660029004801561080a5780601f106107df5761010080835404028352916020019161080a565b820191906000526020600020905b8154815290600101906020018083116107ed57829003601f168201915b50505050508152602001600282018054600181600116156101000203166002900480601f0160208091040260200160405190810160405280929190818152602001828054600181600116156101000203166002900480156108ac5780601f10610881576101008083540402835291602001916108ac565b820191906000526020600020905b81548152906001019060200180831161088f57829003601f168201915b505050505081526020016003820154815260200160048201548152602001600582015481526020016007820160009054906101000a900460ff161515151581526020016007820160019054906101000a900473ffffffffffffffffffffffffffffffffffffffff1673ffffffffffffffffffffffffffffffffffffffff1673ffffffffffffffffffffffffffffffffffffffff16815250509050600181606001818151019150818152505080600160008481526020019081526020016000206000820151816000015560208201518160010190805190602001906109919291906131b0565b5060408201518160020190805190602001906109ae9291906131b0565b50606082015181600301556080820151816004015560a0820151816005015560c08201518160070160006101000a81548160ff02191690831515021790555060e08201518160070160016101000a81548173ffffffffffffffffffffffffffffffffffffffff021916908373ffffffffffffffffffffffffffffffffffffffff160217905550905050610a3f613230565b600260008360e0015173ffffffffffffffffffffffffffffffffffffffff1673ffffffffffffffffffffffffffffffffffffffff16815260200190815260200160002060c060405190810160405290816000820160009054906101000a900473ffffffffffffffffffffffffffffffffffffffff1673ffffffffffffffffffffffffffffffffffffffff1673ffffffffffffffffffffffffffffffffffffffff168152602001600182018054600181600116156101000203166002900480601f016020809104026020016040519081016040528092919081815260200182805460018160011615610100020316600290048015610b7d5780601f10610b5257610100808354040283529160200191610b7d565b820191906000526020600020905b815481529060010190602001808311610b6057829003601f168201915b505050505081526020016002820154815260200160038201548152602001600482015481526020016005820154815250509050600181604001818151019150818152505080600260008460e0015173ffffffffffffffffffffffffffffffffffffffff1673ffffffffffffffffffffffffffffffffffffffff16815260200190815260200160002060008201518160000160006101000a81548173ffffffffffffffffffffffffffffffffffffffff021916908373ffffffffffffffffffffffffffffffffffffffff1602179055506020820151816001019080519060200190610c689291906131b0565b5060408201518160020155606082015181600301556080820151816004015560a082015181600501559050507f01d598a2b3cc3382817da2b76cdbf63f353f4fcd3b9ac363988e841b0e41f6cc838360600151836040015160405180848152602001838152602001828152602001935050505060405180910390a1505050565b60c06040519081016040528073371da44dd8a971f284a7e259c06afb38613dfa8d73ffffffffffffffffffffffffffffffffffffffff1681526020016101006040519081016040528060d2815260200161358a60d29139815260200160008152602001600081526020016000815260200160328152506002600073371da44dd8a971f284a7e259c06afb38613dfa8d73ffffffffffffffffffffffffffffffffffffffff1673ffffffffffffffffffffffffffffffffffffffff16815260200190815260200160002060008201518160000160006101000a81548173ffffffffffffffffffffffffffffffffffffffff021916908373ffffffffffffffffffffffffffffffffffffffff1602179055506020820151816001019080519060200190610e149291906131b0565b5060408201518160020155606082015181600301556080820151816004015560a0820151816005015590505060c060405190810160405280735a404575d7fb80fea200c148ebdc8a7bf6fe020173ffffffffffffffffffffffffffffffffffffffff16815260200160e06040519081016040528060c081526020016134ca60c091398152602001600081526020016000815260200160008152602001603281525060026000735a404575d7fb80fea200c148ebdc8a7bf6fe020173ffffffffffffffffffffffffffffffffffffffff1673ffffffffffffffffffffffffffffffffffffffff16815260200190815260200160002060008201518160000160006101000a81548173ffffffffffffffffffffffffffffffffffffffff021916908373ffffffffffffffffffffffffffffffffffffffff1602179055506020820151816001019080519060200190610f6b9291906131b0565b5060408201518160020155606082015181600301556080820151816004015560a0820151816005015590505060c060405190810160405280738314af307723326e337f10105d190aacedaa712973ffffffffffffffffffffffffffffffffffffffff16815260200160c06040519081016040528060998152602001613431609991398152602001600081526020016000815260200160008152602001603281525060026000738314af307723326e337f10105d190aacedaa712973ffffffffffffffffffffffffffffffffffffffff1673ffffffffffffffffffffffffffffffffffffffff16815260200190815260200160002060008201518160000160006101000a81548173ffffffffffffffffffffffffffffffffffffffff021916908373ffffffffffffffffffffffffffffffffffffffff16021790555060208201518160010190805190602001906110c29291906131b0565b5060408201518160020155606082015181600301556080820151816004015560a0820151816005015590505060c06040519081016040528073220ed39bc8bddb59ba4237b8829fbbfd2392660073ffffffffffffffffffffffffffffffffffffffff16815260200160a060405190810160405280606681526020017f68747470733a2f2f696d616765732e706578656c732e636f6d2f70686f746f7381526020017f2f3330323734332f706578656c732d70686f746f2d3330323734332e6a70656781526020017f3f6175746f3d636f6d70726573732663733d74696e7973726762266470723d3181526020017f26773d3530300000000000000000000000000000000000000000000000000000815250815260200160008152602001600081526020016000815260200160328152506002600073220ed39bc8bddb59ba4237b8829fbbfd2392660073ffffffffffffffffffffffffffffffffffffffff1673ffffffffffffffffffffffffffffffffffffffff16815260200190815260200160002060008201518160000160006101000a81548173ffffffffffffffffffffffffffffffffffffffff021916908373ffffffffffffffffffffffffffffffffffffffff16021790555060208201518160010190805190602001906112a89291906131b0565b5060408201518160020155606082015181600301556080820151816004015560a0820151816005015590505060c0604051908101604052807329b2ae56de9cbc99822df7339a576e37e0d2109273ffffffffffffffffffffffffffffffffffffffff16815260200160c0604051908101604052806084815260200161332a6084913981526020016000815260200160008152602001600081526020016032815250600260007329b2ae56de9cbc99822df7339a576e37e0d2109273ffffffffffffffffffffffffffffffffffffffff1673ffffffffffffffffffffffffffffffffffffffff16815260200190815260200160002060008201518160000160006101000a81548173ffffffffffffffffffffffffffffffffffffffff021916908373ffffffffffffffffffffffffffffffffffffffff16021790555060208201518160010190805190602001906113ff9291906131b0565b5060408201518160020155606082015181600301556080820151816004015560a0820151816005015590505060c060405190810160405280732531945d51328bb24f519de9eb41d33f77cb639873ffffffffffffffffffffffffffffffffffffffff168152602001608060405190810160405280604381526020017f68747470733a2f2f63646e2e706978616261792e636f6d2f70686f746f2f323081526020017f31332f30372f32312f31332f30302f726f73652d3136353831395f5f3334302e81526020017f6a706700000000000000000000000000000000000000000000000000000000008152508152602001600081526020016000815260200160008152602001603281525060026000732531945d51328bb24f519de9eb41d33f77cb639873ffffffffffffffffffffffffffffffffffffffff1673ffffffffffffffffffffffffffffffffffffffff16815260200190815260200160002060008201518160000160006101000a81548173ffffffffffffffffffffffffffffffffffffffff021916908373ffffffffffffffffffffffffffffffffffffffff16021790555060208201518160010190805190602001906115bf9291906131b0565b5060408201518160020155606082015181600301556080820151816004015560a0820151816005015590505060c06040519081016040528073ee1249d4040a43a429ad5ec1f7c536265822139c73ffffffffffffffffffffffffffffffffffffffff168152602001606060405190810160405280603c81526020017f68747470733a2f2f6d2e6d656469612d616d617a6f6e2e636f6d2f696d61676581526020017f732f492f373154446d56394a56614c2e5f534c313530305f2e6a706700000000815250815260200160008152602001600081526020016000815260200160328152506002600073ee1249d4040a43a429ad5ec1f7c536265822139c73ffffffffffffffffffffffffffffffffffffffff1673ffffffffffffffffffffffffffffffffffffffff16815260200190815260200160002060008201518160000160006101000a81548173ffffffffffffffffffffffffffffffffffffffff021916908373ffffffffffffffffffffffffffffffffffffffff16021790555060208201518160010190805190602001906117599291906131b0565b5060408201518160020155606082015181600301556080820151816004015560a0820151816005015590505060c0604051908101604052807328a8f02abd0595e203131cddd24344bcdfd0548173ffffffffffffffffffffffffffffffffffffffff168152602001608060405190810160405280604781526020017f68747470733a2f2f692e70696e696d672e636f6d2f373336782f65632f30372f81526020017f34362f656330373436323433613134386462646331316634363739393630323781526020017f3234392e6a70670000000000000000000000000000000000000000000000000081525081526020016000815260200160008152602001600081526020016032815250600260007328a8f02abd0595e203131cddd24344bcdfd0548173ffffffffffffffffffffffffffffffffffffffff1673ffffffffffffffffffffffffffffffffffffffff16815260200190815260200160002060008201518160000160006101000a81548173ffffffffffffffffffffffffffffffffffffffff021916908373ffffffffffffffffffffffffffffffffffffffff16021790555060208201518160010190805190602001906119199291906131b0565b5060408201518160020155606082015181600301556080820151816004015560a0820151816005015590505060c060405190810160405280730e40ac73ecb30e7201fe376ca7279dfdc7c2a32373ffffffffffffffffffffffffffffffffffffffff16815260200160c060405190810160405280608381526020016133ae608391398152602001600081526020016000815260200160008152602001603281525060026000730e40ac73ecb30e7201fe376ca7279dfdc7c2a32373ffffffffffffffffffffffffffffffffffffffff1673ffffffffffffffffffffffffffffffffffffffff16815260200190815260200160002060008201518160000160006101000a81548173ffffffffffffffffffffffffffffffffffffffff021916908373ffffffffffffffffffffffffffffffffffffffff1602179055506020820151816001019080519060200190611a709291906131b0565b5060408201518160020155606082015181600301556080820151816004015560a0820151816005015590505060c060405190810160405280735eb6f8ed0cfbfb1fcf4d5afe23619941b61a56b773ffffffffffffffffffffffffffffffffffffffff168152602001608060405190810160405280604381526020017f68747470733a2f2f75706c6f61642e77696b696d656469612e6f72672f77696b81526020017f6970656469612f636f6d6d6f6e732f322f32612f4e65775f4c6f676f5f41442e81526020017f6a706700000000000000000000000000000000000000000000000000000000008152508152602001600081526020016000815260200160008152602001603281525060026000735eb6f8ed0cfbfb1fcf4d5afe23619941b61a56b773ffffffffffffffffffffffffffffffffffffffff1673ffffffffffffffffffffffffffffffffffffffff16815260200190815260200160002060008201518160000160006101000a81548173ffffffffffffffffffffffffffffffffffffffff021916908373ffffffffffffffffffffffffffffffffffffffff1602179055506020820151816001019080519060200190611c309291906131b0565b5060408201518160020155606082015181600301556080820151816004015560a08201518160050155905050565b6000600190505b600054811115156122f5576001600082815260200190815260200160002060070160009054906101000a900460ff1615611fb6576000600190505b600160008381526020019081526020016000206005015481111515611fb057611cc7613230565b6002600060016000868152602001908152602001600020600601600085815260200190815260200160002060009054906101000a900473ffffffffffffffffffffffffffffffffffffffff1673ffffffffffffffffffffffffffffffffffffffff1673ffffffffffffffffffffffffffffffffffffffff16815260200190815260200160002060c060405190810160405290816000820160009054906101000a900473ffffffffffffffffffffffffffffffffffffffff1673ffffffffffffffffffffffffffffffffffffffff1673ffffffffffffffffffffffffffffffffffffffff168152602001600182018054600181600116156101000203166002900480601f016020809104026020016040519081016040528092919081815260200182805460018160011615610100020316600290048015611e485780601f10611e1d57610100808354040283529160200191611e48565b820191906000526020600020905b815481529060010190602001808311611e2b57829003601f168201915b50505050508152602001600282015481526020016003820154815260200160048201548152602001600582015481525050905060028160a0018181510191508181525050806002600060016000878152602001908152602001600020600601600086815260200190815260200160002060009054906101000a900473ffffffffffffffffffffffffffffffffffffffff1673ffffffffffffffffffffffffffffffffffffffff1673ffffffffffffffffffffffffffffffffffffffff16815260200190815260200160002060008201518160000160006101000a81548173ffffffffffffffffffffffffffffffffffffffff021916908373ffffffffffffffffffffffffffffffffffffffff1602179055506020820151816001019080519060200190611f769291906131b0565b5060408201518160020155606082015181600301556080820151816004015560a08201518160050155905050508080600101915050611ca0565b506122e8565b6000600190505b6001600083815260200190815260200160002060050154811115156122e657611fe4613230565b6002600060016000868152602001908152602001600020600601600085815260200190815260200160002060009054906101000a900473ffffffffffffffffffffffffffffffffffffffff1673ffffffffffffffffffffffffffffffffffffffff1673ffffffffffffffffffffffffffffffffffffffff16815260200190815260200160002060c060405190810160405290816000820160009054906101000a900473ffffffffffffffffffffffffffffffffffffffff1673ffffffffffffffffffffffffffffffffffffffff1673ffffffffffffffffffffffffffffffffffffffff168152602001600182018054600181600116156101000203166002900480601f0160208091040260200160405190810160405280929190818152602001828054600181600116156101000203166002900480156121655780601f1061213a57610100808354040283529160200191612165565b820191906000526020600020905b81548152906001019060200180831161214857829003601f168201915b50505050508152602001600282015481526020016003820154815260200160048201548152602001600582015481525050905060088160a001818151039150818152505060008160a0015110156121c25760008160a00181815250505b806002600060016000878152602001908152602001600020600601600086815260200190815260200160002060009054906101000a900473ffffffffffffffffffffffffffffffffffffffff1673ffffffffffffffffffffffffffffffffffffffff1673ffffffffffffffffffffffffffffffffffffffff16815260200190815260200160002060008201518160000160006101000a81548173ffffffffffffffffffffffffffffffffffffffff021916908373ffffffffffffffffffffffffffffffffffffffff16021790555060208201518160010190805190602001906122ac9291906131b0565b5060408201518160020155606082015181600301556080820151816004015560a08201518160050155905050508080600101915050611fbd565b505b8080600101915050611c65565b5060008090505b60148110156123125780806001019150506122fc565b50565b600060016000838152602001908152602001600020905060018160050160008282540192505081905550338160060160008360050154815260200190815260200160002060006101000a81548173ffffffffffffffffffffffffffffffffffffffff021916908373ffffffffffffffffffffffffffffffffffffffff160217905550600681600501541015156123c35760018160070160006101000a81548160ff0219169083151502179055505b8060016000848152602001908152602001600020600082015481600001556001820181600101908054600181600116156101000203166002900461240892919061327d565b506002820181600201908054600181600116156101000203166002900461243092919061327d565b506003820154816003015560048201548160040155600582015481600501556007820160009054906101000a900460ff168160070160006101000a81548160ff0219169083151502179055506007820160019054906101000a900473ffffffffffffffffffffffffffffffffffffffff168160070160016101000a81548173ffffffffffffffffffffffffffffffffffffffff021916908373ffffffffffffffffffffffffffffffffffffffff1602179055509050506124ee613230565b600260008360070160019054906101000a900473ffffffffffffffffffffffffffffffffffffffff1673ffffffffffffffffffffffffffffffffffffffff1673ffffffffffffffffffffffffffffffffffffffff16815260200190815260200160002060c060405190810160405290816000820160009054906101000a900473ffffffffffffffffffffffffffffffffffffffff1673ffffffffffffffffffffffffffffffffffffffff1673ffffffffffffffffffffffffffffffffffffffff168152602001600182018054600181600116156101000203166002900480601f01602080910402602001604051908101604052809291908181526020018280546001816001161561010002031660029004801561264c5780601f106126215761010080835404028352916020019161264c565b820191906000526020600020905b81548152906001019060200180831161262f57829003601f168201915b505050505081526020016002820154815260200160038201548152602001600482015481526020016005820154815250509050600181608001818151019150818152505080600260008460070160019054906101000a900473ffffffffffffffffffffffffffffffffffffffff1673ffffffffffffffffffffffffffffffffffffffff1673ffffffffffffffffffffffffffffffffffffffff16815260200190815260200160002060008201518160000160006101000a81548173ffffffffffffffffffffffffffffffffffffffff021916908373ffffffffffffffffffffffffffffffffffffffff16021790555060208201518160010190805190602001906127579291906131b0565b5060408201518160020155606082015181600301556080820151816004015560a082015181600501559050507f21410dd2363997494d47b5c87064c6c9aa62ffcab49f0d2e7c0341f491a0a0258383600401548460070160009054906101000a900460ff168460800151604051808581526020018481526020018315151515815260200182815260200194505050505060405180910390a1505050565b60026020528060005260406000206000915090508060000160009054906101000a900473ffffffffffffffffffffffffffffffffffffffff1690806001018054600181600116156101000203166002900480601f0160208091040260200160405190810160405280929190818152602001828054600181600116156101000203166002900480156128c65780601f1061289b576101008083540402835291602001916128c6565b820191906000526020600020905b8154815290600101906020018083116128a957829003601f168201915b5050505050908060020154908060030154908060040154908060050154905086565b60008081548092919060010191905055506101006040519081016040528060005481526020018381526020018281526020016000815260200160008152602001600081526020016000151581526020013373ffffffffffffffffffffffffffffffffffffffff16815250600160008054815260200190815260200160002060008201518160000155602082015181600101908051906020019061298c9291906131b0565b5060408201518160020190805190602001906129a99291906131b0565b50606082015181600301556080820151816004015560a0820151816005015560c08201518160070160006101000a81548160ff02191690831515021790555060e08201518160070160016101000a81548173ffffffffffffffffffffffffffffffffffffffff021916908373ffffffffffffffffffffffffffffffffffffffff1602179055509050507fc131d148d426255c7e657b91d13482975da91b68acd68f0142143ebedefc3b09600054838360008060008033604051808981526020018060200180602001888152602001878152602001868152602001851515151581526020018473ffffffffffffffffffffffffffffffffffffffff1673ffffffffffffffffffffffffffffffffffffffff16815260200183810383528a818151815260200191508051906020019080838360005b83811015612af7578082015181840152602081019050612adc565b50505050905090810190601f168015612b245780820380516001836020036101000a031916815260200191505b50838103825289818151815260200191508051906020019080838360005b83811015612b5d578082015181840152602081019050612b42565b50505050905090810190601f168015612b8a5780820380516001836020036101000a031916815260200191505b509a505050505050505050505060405180910390a15050565b612bab613152565b60016000838152602001908152602001600020610100604051908101604052908160008201548152602001600182018054600181600116156101000203166002900480601f016020809104026020016040519081016040528092919081815260200182805460018160011615610100020316600290048015612c6e5780601f10612c4357610100808354040283529160200191612c6e565b820191906000526020600020905b815481529060010190602001808311612c5157829003601f168201915b50505050508152602001600282018054600181600116156101000203166002900480601f016020809104026020016040519081016040528092919081815260200182805460018160011615610100020316600290048015612d105780601f10612ce557610100808354040283529160200191612d10565b820191906000526020600020905b815481529060010190602001808311612cf357829003601f168201915b505050505081526020016003820154815260200160048201548152602001600582015481526020016007820160009054906101000a900460ff161515151581526020016007820160019054906101000a900473ffffffffffffffffffffffffffffffffffffffff1673ffffffffffffffffffffffffffffffffffffffff1673ffffffffffffffffffffffffffffffffffffffff1681525050905060018160800181815101915081815250508060016000848152602001908152602001600020600082015181600001556020820151816001019080519060200190612df59291906131b0565b506040820151816002019080519060200190612e129291906131b0565b50606082015181600301556080820151816004015560a0820151816005015560c08201518160070160006101000a81548160ff02191690831515021790555060e08201518160070160016101000a81548173ffffffffffffffffffffffffffffffffffffffff021916908373ffffffffffffffffffffffffffffffffffffffff160217905550905050612ea3613230565b600260008360e0015173ffffffffffffffffffffffffffffffffffffffff1673ffffffffffffffffffffffffffffffffffffffff16815260200190815260200160002060c060405190810160405290816000820160009054906101000a900473ffffffffffffffffffffffffffffffffffffffff1673ffffffffffffffffffffffffffffffffffffffff1673ffffffffffffffffffffffffffffffffffffffff168152602001600182018054600181600116156101000203166002900480601f016020809104026020016040519081016040528092919081815260200182805460018160011615610100020316600290048015612fe15780601f10612fb657610100808354040283529160200191612fe1565b820191906000526020600020905b815481529060010190602001808311612fc457829003601f168201915b505050505081526020016002820154815260200160038201548152602001600482015481526020016005820154815250509050600181606001818151019150818152505080600260008460e0015173ffffffffffffffffffffffffffffffffffffffff1673ffffffffffffffffffffffffffffffffffffffff16815260200190815260200160002060008201518160000160006101000a81548173ffffffffffffffffffffffffffffffffffffffff021916908373ffffffffffffffffffffffffffffffffffffffff16021790555060208201518160010190805190602001906130cc9291906131b0565b5060408201518160020155606082015181600301556080820151816004015560a082015181600501559050507f13e1cc53b900719dbac8705be5301353760e261ab9ff3e1e146a4f792e2cf13d838360800151836060015160405180848152602001838152602001828152602001935050505060405180910390a1505050565b60005481565b61010060405190810160405280600081526020016060815260200160608152602001600081526020016000815260200160008152602001600015158152602001600073ffffffffffffffffffffffffffffffffffffffff1681525090565b828054600181600116156101000203166002900490600052602060002090601f016020900481019282601f106131f157805160ff191683800117855561321f565b8280016001018555821561321f579182015b8281111561321e578251825591602001919060010190613203565b5b50905061322c9190613304565b5090565b60c060405190810160405280600073ffffffffffffffffffffffffffffffffffffffff16815260200160608152602001600081526020016000815260200160008152602001600081525090565b828054600181600116156101000203166002900490600052602060002090601f016020900481019282601f106132b657805485556132f3565b828001600101855582156132f357600052602060002091601f016020900482015b828111156132f25782548255916001019190600101906132d7565b5b5090506133009190613304565b5090565b61332691905b8082111561332257600081600090555060010161330a565b5090565b9056fe68747470733a2f2f656e637279707465642d74626e302e677374617469632e636f6d2f696d616765733f713d74626e3a414e64394763516b4530776e57594c4e79426c5048414d48436633734a6d734a577161474959645935732d6856303856474e3362344b50344e636d765a757947744e4d4a6f42734148466b26757371703d43415568747470733a2f2f7777772e64657369676e796f75727761792e6e65742f626c6f672f77702d636f6e74656e742f75706c6f6164732f323031382f30382f3338373031315f33642d637574652d77616c6c7061706572732d666f722d6465736b746f702d68642d312d6a70675f31303234783736385f682d373030783532352e6a706768747470733a2f2f6d656469612e6973746f636b70686f746f2e636f6d2f70686f746f732f6d6f756e7461696e2d6c616e6473636170652d706963747572652d69643531373138383638383f6b3d3230266d3d35313731383836383826733d3631327836313226773d3026683d69333871426d32502d365634765a5645614d795f54615445616f434d6b5968764c4379734537794a5135513d68747470733a2f2f6d656469612e6973746f636b70686f746f2e636f6d2f70686f746f732f637574652d6c6974746c652d6166726963616e2d616d65726963616e2d6769726c2d6c6f6f6b696e672d61742d63616d6572612d706963747572652d6964313335333337393137323f623d31266b3d3230266d3d3133353333373931373226733d3137303636376126773d3026683d41546461704a4150317656556b6b3637766367786c562d4c67344c75584a4e5350384e366177635374536f3d68747470733a2f2f6d656469612e6973746f636b70686f746f2e636f6d2f70686f746f732f66756c6c2d6c656e6774682d73686f742d6f662d612d796f756e672d6769726c2d73697474696e672d696e2d7468652d68616c6c7761792d61742d7363686f6f6c2d616e642d706963747572652d6964313333393034303536313f623d31266b3d3230266d3d3133333930343035363126733d3137303636376126773d3026683d634249655372596950376c63496f684333614c484f5943483158316e544733776b347854716e37654937343da165627a7a723058206f8c974f8c07e3b1524d3d298df5adc301b92454b73c86075a2abd15eb74b58b0029",
  "source": "pragma solidity ^0.5.0;\r\n\r\ncontract socialBlocks {\r\n\r\n\t//global variable for total number of post\r\n\tuint public postcount = 0;\r\n\r\n\t// post data structures and event\r\n\tstruct post{\r\n  \tuint id;\r\n\t\tstring content;\r\n\t\tstring imgsrc;\r\n\t\tuint likecnt;\r\n\t\tuint dislikecnt;\r\n\t\tuint reportcnt;\r\n\t\tmapping (uint => address) reportlist;\r\n\t\t//string cmnt;\r\n\t\tbool isreported;\r\n\t\taddress owner;\r\n\t}\r\n\r\n\r\n\tmapping(uint => post) public posts;\r\n\r\n\tevent postadded(\r\n  \tuint id,\r\n\t\tstring content,\r\n\t\tstring imgsrc,\r\n\t\tuint likecnt,\r\n\t\tuint dislikecnt,\r\n\t\tuint reportcnt,\r\n\t\t//string cmnt;\r\n\t\tbool isreported,\r\n\t\taddress owner\r\n\t);\r\n\r\n//data structures for user\r\nstruct user{\r\n\taddress useraddress;\r\n\tstring profileimgsrc;\r\n\tuint likecnt;\r\n\tuint dislikecnt;\r\n\tuint reportcnt;\r\n\tuint reputation;\r\n}\r\n\r\nmapping(address => user) public users;\r\n// function to add user in a go\r\nfunction addUser() public {\r\n//adding users manually\r\nusers[0x371Da44DD8a971F284A7e259c06Afb38613dfa8D] = user(0x371Da44DD8a971F284A7e259c06Afb38613dfa8D,\"https://media.istockphoto.com/photos/full-length-shot-of-a-young-girl-sitting-in-the-hallway-at-school-and-picture-id1339040561?b=1&k=20&m=1339040561&s=170667a&w=0&h=cBIeSrYiP7lcIohC3aLHOYCH1X1nTG3wk4xTqn7eI74=\",0,0,0,50);\r\nusers[0x5a404575d7fB80fEA200c148EbDc8A7BF6FE0201] = user(0x5a404575d7fB80fEA200c148EbDc8A7BF6FE0201,\"https://media.istockphoto.com/photos/cute-little-african-american-girl-looking-at-camera-picture-id1353379172?b=1&k=20&m=1353379172&s=170667a&w=0&h=ATdapJAP1vVUkk67vcgxlV-Lg4LuXJNSP8N6awcStSo=\",0,0,0,50);\r\nusers[0x8314AF307723326e337F10105d190aacEDaA7129] = user(0x8314AF307723326e337F10105d190aacEDaA7129,\"https://media.istockphoto.com/photos/mountain-landscape-picture-id517188688?k=20&m=517188688&s=612x612&w=0&h=i38qBm2P-6V4vZVEaMy_TaTEaoCMkYhvLCysE7yJQ5Q=\",0,0,0,50);\r\nusers[0x220eD39Bc8BDdb59ba4237b8829fbBFD23926600] = user(0x220eD39Bc8BDdb59ba4237b8829fbBFD23926600,\"https://images.pexels.com/photos/302743/pexels-photo-302743.jpeg?auto=compress&cs=tinysrgb&dpr=1&w=500\",0,0,0,50);\r\nusers[0x29b2ae56DE9CbC99822df7339a576e37E0d21092] = user(0x29b2ae56DE9CbC99822df7339a576e37E0d21092,\"https://encrypted-tbn0.gstatic.com/images?q=tbn:ANd9GcQkE0wnWYLNyBlPHAMHCf3sJmsJWqaGIYdY5s-hV08VGN3b4KP4NcmvZuyGtNMJoBsAHFk&usqp=CAU\",0,0,0,50);\r\nusers[0x2531945d51328BB24F519de9EB41d33f77cb6398] = user(0x2531945d51328BB24F519de9EB41d33f77cb6398,\"https://cdn.pixabay.com/photo/2013/07/21/13/00/rose-165819__340.jpg\",0,0,0,50);\r\nusers[0xee1249D4040A43a429aD5eC1F7C536265822139C] = user(0xee1249D4040A43a429aD5eC1F7C536265822139C,\"https://m.media-amazon.com/images/I/71TDmV9JVaL._SL1500_.jpg\",0,0,0,50);\r\nusers[0x28A8F02ABd0595e203131CDDd24344BCdfd05481] = user(0x28A8F02ABd0595e203131CDDd24344BCdfd05481,\"https://i.pinimg.com/736x/ec/07/46/ec0746243a148dbdc11f467996027249.jpg\",0,0,0,50);\r\nusers[0x0E40aC73Ecb30E7201fE376ca7279DFdC7c2A323] = user(0x0E40aC73Ecb30E7201fE376ca7279DFdC7c2A323,\"https://www.designyourway.net/blog/wp-content/uploads/2018/08/387011_3d-cute-wallpapers-for-desktop-hd-1-jpg_1024x768_h-700x525.jpg\",0,0,0,50);\r\nusers[0x5Eb6F8Ed0CFbFB1FCf4d5AFe23619941b61A56b7] = user(0x5Eb6F8Ed0CFbFB1FCf4d5AFe23619941b61A56b7,\"https://upload.wikimedia.org/wikipedia/commons/2/2a/New_Logo_AD.jpg\",0,0,0,50);\r\n}\r\n\r\n\r\n\r\n//function to add post\r\n\tfunction addPost(string memory _content, string memory _imgsrc) public{\r\n\r\n\t\tpostcount++;\r\n\t\tposts[postcount] = post(postcount,_content,_imgsrc,0,0,0,false,msg.sender);\r\n\t\temit postadded(postcount,_content,_imgsrc,0,0,0,false,msg.sender);\r\n\t}\r\n\r\n\tevent liked(\r\n\t\tuint id,\r\n\t\tuint plikecnt,\r\n\t\tuint ulikecnt\r\n\t);\r\n\r\n\r\n\tfunction onLike(uint _id) public {\r\n\t\tpost memory _ptemp = posts[_id] ;\r\n\t\t_ptemp.likecnt +=1;\r\n\t\tposts[_id] = _ptemp;\r\n\r\n\t\tuser memory _utemp = users[_ptemp.owner];\r\n\t\t_utemp.likecnt +=1;\r\n\t\tusers[_ptemp.owner] = _utemp ;\r\n\r\n\t\temit liked(_id,_ptemp.likecnt,_utemp.likecnt);\r\n\t}\r\n\r\n\tevent disliked(\r\n\t\tuint id,\r\n\t\tuint pdislikecnt,\r\n\t\tuint udislikecnt\r\n\t);\r\n\tfunction onDislike(uint _id) public {\r\n\t\tpost memory _ptemp = posts[_id] ;\r\n\t\t_ptemp.dislikecnt +=1;\r\n\t\tposts[_id] = _ptemp;\r\n\r\n\t\tuser memory _utemp = users[_ptemp.owner];\r\n\t\t_utemp.dislikecnt +=1;\r\n\t\tusers[_ptemp.owner] = _utemp ;\r\n\r\n\t\temit disliked(_id,_ptemp.dislikecnt,_utemp.dislikecnt);\r\n\t}\r\n\r\n\r\n\tevent reported(\r\n\t\tuint id,\r\n\t\tuint preportcnt,\r\n\t\tbool isreported,\r\n\t\tuint ureportcnt\r\n\t);\r\n\tfunction onReport(uint _id) public {\r\n\r\n\t\tpost storage _ptemp = posts[_id] ;\r\n\t\t_ptemp.reportcnt +=1;\r\n\r\n\t\t// filling the report list to know who all reported the post\r\n\t\t_ptemp.reportlist[_ptemp.reportcnt] = msg.sender;\r\n\r\n\t\t// reported greater that 25%\r\n\t\tif(_ptemp.reportcnt>=6){\r\n\t\t\t_ptemp.isreported = true;\r\n\t\t}\r\n\t\tposts[_id] = _ptemp;\r\n\r\n\t\tuser memory _utemp = users[_ptemp.owner];\r\n\t\t_utemp.reportcnt +=1;\r\n\t\tusers[_ptemp.owner] = _utemp ;\r\n\r\n\t\temit reported(_id,_ptemp.dislikecnt,_ptemp.isreported,_utemp.reportcnt);\r\n\t}\r\n\r\n\tfunction settlement() public{\r\n\t\t// traversing posts for report award penalty\r\n\t\tfor(uint i =1; i<=postcount;i++){\r\n\t\t\tif(posts[i].isreported){\r\n\t\t\t\t//award reputation\r\n\t\t\t\tfor(uint k=1; k<=posts[i].reportcnt;k++){\r\n\t\t\t\t\tuser memory _utemp = users[posts[i].reportlist[k]];\r\n\t\t\t\t\t_utemp.reputation += 2;\r\n\t\t\t\t\tusers[posts[i].reportlist[k]] = _utemp;\r\n\t\t\t\t}\r\n\t\t\t}\r\n\t\t\telse{\r\n\t\t\t\t//penalize reputation\r\n\t\t\t\tfor(uint k=1; k<=posts[i].reportcnt;k++){\r\n\t\t\t\t\tuser memory _utemp = users[posts[i].reportlist[k]];\r\n\t\t\t\t\t_utemp.reputation -= 8;\r\n\t\t\t\t\tif(_utemp.reputation<0){\r\n\t\t\t\t\t\t_utemp.reputation=0;\r\n\t\t\t\t\t}\r\n\t\t\t\t\tusers[posts[i].reportlist[k]] = _utemp;\r\n\t\t\t\t}\r\n\t\t\t}\r\n\t\t}\r\n\r\n\t\t// traversing users for like/dislike reward\r\n\t\tfor (uint j=0;j<20;j++){\r\n\t\t\t// award ether...\r\n\t\t}\r\n\t}\r\n\r\n}\r\n",
  "sourcePath": "F:/Books/1_final year project/work/social_media_app_trial-1/contracts/socialBlocks.sol",
  "compiler": {
    "name": "solc",
    "version": "0.5.0+commit.1d4f565a.Emscripten.clang"
  },
  "schemaVersion": "3.0.1",
  "updatedAt": "2022-05-12T07:09:52.130Z",
  "devdoc": {
    "methods": {}
  },
  "userdoc": {
    "methods": {}
  }
}